{
  "_format": "hh-sol-artifact-1",
  "contractName": "StakingRewards",
  "sourceName": "contracts/StakingRewards.sol",
  "abi": [
    {
      "inputs": [
        {
          "internalType": "contract MockToken",
          "name": "_stakingToken",
          "type": "address"
        },
        {
          "internalType": "contract MockToken",
          "name": "_rewardToken",
          "type": "address"
        },
        {
          "internalType": "uint256",
          "name": "_amount",
          "type": "uint256"
        }
      ],
      "stateMutability": "nonpayable",
      "type": "constructor"
    },
    {
      "inputs": [
        {
          "internalType": "address",
          "name": "account",
          "type": "address"
        },
        {
          "internalType": "string",
          "name": "text",
          "type": "string"
        }
      ],
      "name": "NoRewardsError",
      "type": "error"
    },
    {
      "anonymous": false,
      "inputs": [
        {
          "indexed": true,
          "internalType": "address",
          "name": "user",
          "type": "address"
        },
        {
          "indexed": false,
          "internalType": "uint256",
          "name": "amount",
          "type": "uint256"
        }
      ],
      "name": "Staked",
      "type": "event"
    },
    {
      "anonymous": false,
      "inputs": [
        {
          "indexed": true,
          "internalType": "address",
          "name": "user",
          "type": "address"
        },
        {
          "indexed": true,
          "internalType": "contract MockToken",
          "name": "token",
          "type": "address"
        },
        {
          "indexed": false,
          "internalType": "uint256",
          "name": "amount",
          "type": "uint256"
        }
      ],
      "name": "Withdrawn",
      "type": "event"
    },
    {
      "inputs": [],
      "name": "duration",
      "outputs": [
        {
          "internalType": "uint256",
          "name": "",
          "type": "uint256"
        }
      ],
      "stateMutability": "view",
      "type": "function"
    },
    {
      "inputs": [
        {
          "internalType": "address",
          "name": "_account",
          "type": "address"
        }
      ],
      "name": "earned",
      "outputs": [
        {
          "internalType": "uint256",
          "name": "",
          "type": "uint256"
        }
      ],
      "stateMutability": "view",
      "type": "function"
    },
    {
      "inputs": [],
      "name": "finishAt",
      "outputs": [
        {
          "internalType": "uint256",
          "name": "",
          "type": "uint256"
        }
      ],
      "stateMutability": "view",
      "type": "function"
    },
    {
      "inputs": [],
      "name": "lastTimeRewardApplicable",
      "outputs": [
        {
          "internalType": "uint256",
          "name": "",
          "type": "uint256"
        }
      ],
      "stateMutability": "view",
      "type": "function"
    },
    {
      "inputs": [
        {
          "internalType": "uint256",
          "name": "_amount",
          "type": "uint256"
        }
      ],
      "name": "notifyRewardAmount",
      "outputs": [],
      "stateMutability": "nonpayable",
      "type": "function"
    },
    {
      "inputs": [],
      "name": "nowTime",
      "outputs": [
        {
          "internalType": "uint256",
          "name": "",
          "type": "uint256"
        }
      ],
      "stateMutability": "view",
      "type": "function"
    },
    {
      "inputs": [],
      "name": "owner",
      "outputs": [
        {
          "internalType": "address",
          "name": "",
          "type": "address"
        }
      ],
      "stateMutability": "view",
      "type": "function"
    },
    {
      "inputs": [],
      "name": "rewardLeft",
      "outputs": [
        {
          "internalType": "uint256",
          "name": "",
          "type": "uint256"
        }
      ],
      "stateMutability": "view",
      "type": "function"
    },
    {
      "inputs": [],
      "name": "rewardPerTokenStored",
      "outputs": [
        {
          "internalType": "uint256",
          "name": "",
          "type": "uint256"
        }
      ],
      "stateMutability": "view",
      "type": "function"
    },
    {
      "inputs": [],
      "name": "rewardRate",
      "outputs": [
        {
          "internalType": "uint256",
          "name": "",
          "type": "uint256"
        }
      ],
      "stateMutability": "view",
      "type": "function"
    },
    {
      "inputs": [],
      "name": "rewardToken",
      "outputs": [
        {
          "internalType": "contract MockToken",
          "name": "",
          "type": "address"
        }
      ],
      "stateMutability": "view",
      "type": "function"
    },
    {
      "inputs": [],
      "name": "rewardsPerStakingToken",
      "outputs": [
        {
          "internalType": "uint256",
          "name": "",
          "type": "uint256"
        }
      ],
      "stateMutability": "view",
      "type": "function"
    },
    {
      "inputs": [
        {
          "internalType": "uint256",
          "name": "_duration",
          "type": "uint256"
        }
      ],
      "name": "setRewardsDuration",
      "outputs": [],
      "stateMutability": "nonpayable",
      "type": "function"
    },
    {
      "inputs": [
        {
          "internalType": "uint256",
          "name": "_amount",
          "type": "uint256"
        }
      ],
      "name": "stake",
      "outputs": [],
      "stateMutability": "nonpayable",
      "type": "function"
    },
    {
      "inputs": [],
      "name": "stakingToken",
      "outputs": [
        {
          "internalType": "contract MockToken",
          "name": "",
          "type": "address"
        }
      ],
      "stateMutability": "view",
      "type": "function"
    },
    {
      "inputs": [],
      "name": "totalRewards",
      "outputs": [
        {
          "internalType": "uint256",
          "name": "",
          "type": "uint256"
        }
      ],
      "stateMutability": "view",
      "type": "function"
    },
    {
      "inputs": [],
      "name": "totalStaked",
      "outputs": [
        {
          "internalType": "uint256",
          "name": "",
          "type": "uint256"
        }
      ],
      "stateMutability": "view",
      "type": "function"
    },
    {
      "inputs": [],
      "name": "updatedAt",
      "outputs": [
        {
          "internalType": "uint256",
          "name": "",
          "type": "uint256"
        }
      ],
      "stateMutability": "view",
      "type": "function"
    },
    {
      "inputs": [
        {
          "internalType": "address",
          "name": "",
          "type": "address"
        }
      ],
      "name": "userRewardPerTokenPaid",
      "outputs": [
        {
          "internalType": "uint256",
          "name": "",
          "type": "uint256"
        }
      ],
      "stateMutability": "view",
      "type": "function"
    },
    {
      "inputs": [
        {
          "internalType": "address",
          "name": "",
          "type": "address"
        }
      ],
      "name": "userShares",
      "outputs": [
        {
          "internalType": "uint256",
          "name": "",
          "type": "uint256"
        }
      ],
      "stateMutability": "view",
      "type": "function"
    },
    {
      "inputs": [
        {
          "internalType": "address",
          "name": "",
          "type": "address"
        }
      ],
      "name": "userStaked",
      "outputs": [
        {
          "internalType": "uint256",
          "name": "",
          "type": "uint256"
        }
      ],
      "stateMutability": "view",
      "type": "function"
    },
    {
      "inputs": [],
      "name": "withdrawRewards",
      "outputs": [],
      "stateMutability": "nonpayable",
      "type": "function"
    },
    {
      "inputs": [
        {
          "internalType": "uint256",
          "name": "_amount",
          "type": "uint256"
        }
      ],
      "name": "withdrawStakingToken",
      "outputs": [],
      "stateMutability": "nonpayable",
      "type": "function"
    }
  ],
  "bytecode": "0x60c060405234801561001057600080fd5b5060405161258a38038061258a833981810160405281019061003291906101fd565b33600360006101000a81548173ffffffffffffffffffffffffffffffffffffffff021916908373ffffffffffffffffffffffffffffffffffffffff1602179055508273ffffffffffffffffffffffffffffffffffffffff1660808173ffffffffffffffffffffffffffffffffffffffff16815250508173ffffffffffffffffffffffffffffffffffffffff1660a08173ffffffffffffffffffffffffffffffffffffffff168152505060a05173ffffffffffffffffffffffffffffffffffffffff166340c10f1930836040518363ffffffff1660e01b815260040161011892919061026e565b600060405180830381600087803b15801561013257600080fd5b505af1158015610146573d6000803e3d6000fd5b50505050505050610297565b600080fd5b600073ffffffffffffffffffffffffffffffffffffffff82169050919050565b600061018282610157565b9050919050565b600061019482610177565b9050919050565b6101a481610189565b81146101af57600080fd5b50565b6000815190506101c18161019b565b92915050565b6000819050919050565b6101da816101c7565b81146101e557600080fd5b50565b6000815190506101f7816101d1565b92915050565b60008060006060848603121561021657610215610152565b5b6000610224868287016101b2565b9350506020610235868287016101b2565b9250506040610246868287016101e8565b9150509250925092565b61025981610177565b82525050565b610268816101c7565b82525050565b60006040820190506102836000830185610250565b610290602083018461025f565b9392505050565b60805160a05161229d6102ed60003960008181610827015281816113260152818161140601526116c001526000818161095501528181610aa601528181610bf301528181610cd30152610f22015261229d6000f3fe608060405234801561001057600080fd5b506004361061014c5760003560e01c806380faa57d116100c3578063c7b8981c1161007c578063c7b8981c1461037f578063cc1a378f14610389578063de69b3aa146103a5578063df136d65146103d5578063f1849dd6146103f3578063f7c618c1146104115761014c565b806380faa57d146102a9578063817b1cd2146102c75780638b876347146102e55780638da5cb5b14610315578063a694fc3a14610333578063acc3a9391461034f5761014c565b80633eee0426116101155780633eee0426146101f757806367d3b4881461021557806372f702f3146102335780637519ab50146102515780637670ea3f1461026f5780637b0a47ee1461028b5761014c565b80628cc262146101515780630e15561a146101815780630fb5a6b41461019f578063335f1b37146101bd5780633c6b16ab146101db575b600080fd5b61016b6004803603810190610166919061184a565b61042f565b6040516101789190611890565b60405180910390f35b61018961052b565b6040516101969190611890565b60405180910390f35b6101a7610531565b6040516101b49190611890565b60405180910390f35b6101c5610537565b6040516101d29190611890565b60405180910390f35b6101f560048036038101906101f091906118d7565b61053f565b005b6101ff610947565b60405161020c9190611890565b60405180910390f35b61021d61094d565b60405161022a9190611890565b60405180910390f35b61023b610953565b6040516102489190611963565b60405180910390f35b610259610977565b6040516102669190611890565b60405180910390f35b610289600480360381019061028491906118d7565b61097d565b005b610293610d5b565b6040516102a09190611890565b60405180910390f35b6102b1610d61565b6040516102be9190611890565b60405180910390f35b6102cf610d74565b6040516102dc9190611890565b60405180910390f35b6102ff60048036038101906102fa919061184a565b610d7a565b60405161030c9190611890565b60405180910390f35b61031d610d92565b60405161032a919061198d565b60405180910390f35b61034d600480360381019061034891906118d7565b610db8565b005b6103696004803603810190610364919061184a565b6110c4565b6040516103769190611890565b60405180910390f35b6103876110dc565b005b6103a3600480360381019061039e91906118d7565b61148e565b005b6103bf60048036038101906103ba919061184a565b6115af565b6040516103cc9190611890565b60405180910390f35b6103dd6115c7565b6040516103ea9190611890565b60405180910390f35b6103fb6115cd565b6040516104089190611890565b60405180910390f35b6104196116be565b6040516104269190611963565b60405180910390f35b600080670de0b6b3a7640000600b60008573ffffffffffffffffffffffffffffffffffffffff1673ffffffffffffffffffffffffffffffffffffffff168152602001908152602001600020546104836115cd565b61048d91906119d7565b600a60008673ffffffffffffffffffffffffffffffffffffffff1673ffffffffffffffffffffffffffffffffffffffff168152602001908152602001600020546104d79190611a0b565b6104e19190611a7c565b90506105226040518060400160405280600981526020017f726577617264733d3e0000000000000000000000000000000000000000000000815250826116e2565b80915050919050565b60005481565b60045481565b600042905090565b600360009054906101000a900473ffffffffffffffffffffffffffffffffffffffff1673ffffffffffffffffffffffffffffffffffffffff163373ffffffffffffffffffffffffffffffffffffffff16146105cf576040517f08c379a00000000000000000000000000000000000000000000000000000000081526004016105c690611b0a565b60405180910390fd5b60006105d96115cd565b6008819055506105e7610d61565b600681905550600073ffffffffffffffffffffffffffffffffffffffff168173ffffffffffffffffffffffffffffffffffffffff16146106b45761062a8161042f565b600960008373ffffffffffffffffffffffffffffffffffffffff1673ffffffffffffffffffffffffffffffffffffffff16815260200190815260200160002081905550600854600b60008373ffffffffffffffffffffffffffffffffffffffff1673ffffffffffffffffffffffffffffffffffffffff168152602001908152602001600020819055505b6000600454116106f9576040517f08c379a00000000000000000000000000000000000000000000000000000000081526004016106f090611b9c565b60405180910390fd5b6000821161073c576040517f08c379a000000000000000000000000000000000000000000000000000000000815260040161073390611c2e565b60405180910390fd5b60055442111561075f57600454826107549190611a7c565b60078190555061079f565b60004260055461076f91906119d7565b60075461077c9190611a0b565b9050600454838261078d9190611c4e565b6107979190611a7c565b600781905550505b6107e06040518060400160405280600c81526020017f726577617264526174653d3e00000000000000000000000000000000000000008152506007546116e2565b600060075411610825576040517f08c379a000000000000000000000000000000000000000000000000000000000815260040161081c90611cce565b60405180910390fd5b7f000000000000000000000000000000000000000000000000000000000000000073ffffffffffffffffffffffffffffffffffffffff166370a08231306040518263ffffffff1660e01b815260040161087e919061198d565b602060405180830381865afa15801561089b573d6000803e3d6000fd5b505050506040513d601f19601f820116820180604052508101906108bf9190611d03565b6007546004546108cf9190611a0b565b1115610910576040517f08c379a000000000000000000000000000000000000000000000000000000000815260040161090790611d7c565b60405180910390fd5b816000808282546109219190611c4e565b92505081905550600454426109369190611c4e565b600581905550426006819055505050565b60025481565b60055481565b7f000000000000000000000000000000000000000000000000000000000000000081565b60065481565b336109866115cd565b600881905550610994610d61565b600681905550600073ffffffffffffffffffffffffffffffffffffffff168173ffffffffffffffffffffffffffffffffffffffff1614610a61576109d78161042f565b600960008373ffffffffffffffffffffffffffffffffffffffff1673ffffffffffffffffffffffffffffffffffffffff16815260200190815260200160002081905550600854600b60008373ffffffffffffffffffffffffffffffffffffffff1673ffffffffffffffffffffffffffffffffffffffff168152602001908152602001600020819055505b60008211610aa4576040517f08c379a0000000000000000000000000000000000000000000000000000000008152600401610a9b90611de8565b60405180910390fd5b7f000000000000000000000000000000000000000000000000000000000000000073ffffffffffffffffffffffffffffffffffffffff166370a08231306040518263ffffffff1660e01b8152600401610afd919061198d565b602060405180830381865afa158015610b1a573d6000803e3d6000fd5b505050506040513d601f19601f82011682018060405250810190610b3e9190611d03565b821115610b80576040517f08c379a0000000000000000000000000000000000000000000000000000000008152600401610b7790611e7a565b60405180910390fd5b81600a60003373ffffffffffffffffffffffffffffffffffffffff1673ffffffffffffffffffffffffffffffffffffffff1681526020019081526020016000206000828254610bcf91906119d7565b925050819055508160016000828254610be891906119d7565b9250508190555060007f000000000000000000000000000000000000000000000000000000000000000073ffffffffffffffffffffffffffffffffffffffff1663a9059cbb33856040518363ffffffff1660e01b8152600401610c4c929190611e9a565b6020604051808303816000875af1158015610c6b573d6000803e3d6000fd5b505050506040513d601f19601f82011682018060405250810190610c8f9190611efb565b905080610cd1576040517f08c379a0000000000000000000000000000000000000000000000000000000008152600401610cc890611f74565b60405180910390fd5b7f000000000000000000000000000000000000000000000000000000000000000073ffffffffffffffffffffffffffffffffffffffff163373ffffffffffffffffffffffffffffffffffffffff167fd1c19fbcd4551a5edfb66d43d2e337c04837afda3482b42bdf569a8fccdae5fb85604051610d4e9190611890565b60405180910390a3505050565b60075481565b6000610d6f4260055461177e565b905090565b60015481565b600b6020528060005260406000206000915090505481565b600360009054906101000a900473ffffffffffffffffffffffffffffffffffffffff1681565b33610dc16115cd565b600881905550610dcf610d61565b600681905550600073ffffffffffffffffffffffffffffffffffffffff168173ffffffffffffffffffffffffffffffffffffffff1614610e9c57610e128161042f565b600960008373ffffffffffffffffffffffffffffffffffffffff1673ffffffffffffffffffffffffffffffffffffffff16815260200190815260200160002081905550600854600b60008373ffffffffffffffffffffffffffffffffffffffff1673ffffffffffffffffffffffffffffffffffffffff168152602001908152602001600020819055505b610edb6040518060400160405280600681526020017f616d6f756e740000000000000000000000000000000000000000000000000000815250836116e2565b60008211610f1e576040517f08c379a0000000000000000000000000000000000000000000000000000000008152600401610f1590611fe0565b60405180910390fd5b60007f000000000000000000000000000000000000000000000000000000000000000073ffffffffffffffffffffffffffffffffffffffff166323b872dd3330866040518463ffffffff1660e01b8152600401610f7d93929190612000565b6020604051808303816000875af1158015610f9c573d6000803e3d6000fd5b505050506040513d601f19601f82011682018060405250810190610fc09190611efb565b905080611002576040517f08c379a0000000000000000000000000000000000000000000000000000000008152600401610ff990612083565b60405180910390fd5b82600a60003373ffffffffffffffffffffffffffffffffffffffff1673ffffffffffffffffffffffffffffffffffffffff16815260200190815260200160002060008282546110519190611c4e565b92505081905550826001600082825461106a9190611c4e565b925050819055503373ffffffffffffffffffffffffffffffffffffffff167f9e71bc8eea02a63969f509818f2dafb9254532904319f9dbda79b67bd34a5f3d846040516110b79190611890565b60405180910390a2505050565b600a6020528060005260406000206000915090505481565b336110e56115cd565b6008819055506110f3610d61565b600681905550600073ffffffffffffffffffffffffffffffffffffffff168173ffffffffffffffffffffffffffffffffffffffff16146111c0576111368161042f565b600960008373ffffffffffffffffffffffffffffffffffffffff1673ffffffffffffffffffffffffffffffffffffffff16815260200190815260200160002081905550600854600b60008373ffffffffffffffffffffffffffffffffffffffff1673ffffffffffffffffffffffffffffffffffffffff168152602001908152602001600020819055505b6000600960003373ffffffffffffffffffffffffffffffffffffffff1673ffffffffffffffffffffffffffffffffffffffff1681526020019081526020016000205490506000810361124957336040517f77f002ba00000000000000000000000000000000000000000000000000000000815260040161124091906120ef565b60405180910390fd5b6000600960003373ffffffffffffffffffffffffffffffffffffffff1673ffffffffffffffffffffffffffffffffffffffff168152602001908152602001600020819055506112cf6040518060400160405280600e81526020017f746f74616c526577617264733d3e0000000000000000000000000000000000008152506000546116e2565b61130e6040518060400160405280600981526020017f726577617264733d3e0000000000000000000000000000000000000000000000815250826116e2565b8060005461131c91906119d7565b60028190555060007f000000000000000000000000000000000000000000000000000000000000000073ffffffffffffffffffffffffffffffffffffffff1663a9059cbb33846040518363ffffffff1660e01b815260040161137f929190611e9a565b6020604051808303816000875af115801561139e573d6000803e3d6000fd5b505050506040513d601f19601f820116820180604052508101906113c29190611efb565b905080611404576040517f08c379a00000000000000000000000000000000000000000000000000000000081526004016113fb90611f74565b60405180910390fd5b7f000000000000000000000000000000000000000000000000000000000000000073ffffffffffffffffffffffffffffffffffffffff163373ffffffffffffffffffffffffffffffffffffffff167fd1c19fbcd4551a5edfb66d43d2e337c04837afda3482b42bdf569a8fccdae5fb846040516114819190611890565b60405180910390a3505050565b600360009054906101000a900473ffffffffffffffffffffffffffffffffffffffff1673ffffffffffffffffffffffffffffffffffffffff163373ffffffffffffffffffffffffffffffffffffffff161461151e576040517f08c379a000000000000000000000000000000000000000000000000000000000815260040161151590611b0a565b60405180910390fd5b4260055410611562576040517f08c379a000000000000000000000000000000000000000000000000000000000815260040161155990612169565b60405180910390fd5b600081116115a5576040517f08c379a000000000000000000000000000000000000000000000000000000000815260040161159c90611b9c565b60405180910390fd5b8060048190555050565b60096020528060005260406000206000915090505481565b60085481565b600080600154036115e25760085490506116bb565b6116286040518060400160405280601881526020017f6c61737454696d655265776172644170706c696361626c650000000000000000815250611623610d61565b6116e2565b6116696040518060400160405280600981526020017f75706461746564417400000000000000000000000000000000000000000000008152506006546116e2565b600154670de0b6b3a7640000600654611680610d61565b61168a91906119d7565b6007546116979190611a0b565b6116a19190611a0b565b6116ab9190611a7c565b6008546116b89190611c4e565b90505b90565b7f000000000000000000000000000000000000000000000000000000000000000081565b61177a82826040516024016116f8929190612208565b6040516020818303038152906040527fb60e72cc000000000000000000000000000000000000000000000000000000007bffffffffffffffffffffffffffffffffffffffffffffffffffffffff19166020820180517bffffffffffffffffffffffffffffffffffffffffffffffffffffffff8381831617835250505050611797565b5050565b600081831061178d578161178f565b825b905092915050565b6117ae816117a66117b16117d2565b63ffffffff16565b50565b60006a636f6e736f6c652e6c6f679050600080835160208501845afa505050565b6117dd819050919050565b6117e5612238565b565b600080fd5b600073ffffffffffffffffffffffffffffffffffffffff82169050919050565b6000611817826117ec565b9050919050565b6118278161180c565b811461183257600080fd5b50565b6000813590506118448161181e565b92915050565b6000602082840312156118605761185f6117e7565b5b600061186e84828501611835565b91505092915050565b6000819050919050565b61188a81611877565b82525050565b60006020820190506118a56000830184611881565b92915050565b6118b481611877565b81146118bf57600080fd5b50565b6000813590506118d1816118ab565b92915050565b6000602082840312156118ed576118ec6117e7565b5b60006118fb848285016118c2565b91505092915050565b6000819050919050565b600061192961192461191f846117ec565b611904565b6117ec565b9050919050565b600061193b8261190e565b9050919050565b600061194d82611930565b9050919050565b61195d81611942565b82525050565b60006020820190506119786000830184611954565b92915050565b6119878161180c565b82525050565b60006020820190506119a2600083018461197e565b92915050565b7f4e487b7100000000000000000000000000000000000000000000000000000000600052601160045260246000fd5b60006119e282611877565b91506119ed83611877565b9250828203905081811115611a0557611a046119a8565b5b92915050565b6000611a1682611877565b9150611a2183611877565b9250828202611a2f81611877565b91508282048414831517611a4657611a456119a8565b5b5092915050565b7f4e487b7100000000000000000000000000000000000000000000000000000000600052601260045260246000fd5b6000611a8782611877565b9150611a9283611877565b925082611aa257611aa1611a4d565b5b828204905092915050565b600082825260208201905092915050565b7f6e6f74206f776e65720000000000000000000000000000000000000000000000600082015250565b6000611af4600983611aad565b9150611aff82611abe565b602082019050919050565b60006020820190508181036000830152611b2381611ae7565b9050919050565b7f6475726174696f6e2073686f756c642062652067726561746572207468616e2060008201527f7a65726f00000000000000000000000000000000000000000000000000000000602082015250565b6000611b86602483611aad565b9150611b9182611b2a565b604082019050919050565b60006020820190508181036000830152611bb581611b79565b9050919050565b7f726577617264416d6f756e742073686f756c642062652067726561746572207460008201527f68616e207a65726f000000000000000000000000000000000000000000000000602082015250565b6000611c18602883611aad565b9150611c2382611bbc565b604082019050919050565b60006020820190508181036000830152611c4781611c0b565b9050919050565b6000611c5982611877565b9150611c6483611877565b9250828201905080821115611c7c57611c7b6119a8565b5b92915050565b7f726577617264526174652063616e206e6f742062652030000000000000000000600082015250565b6000611cb8601783611aad565b9150611cc382611c82565b602082019050919050565b60006020820190508181036000830152611ce781611cab565b9050919050565b600081519050611cfd816118ab565b92915050565b600060208284031215611d1957611d186117e7565b5b6000611d2784828501611cee565b91505092915050565b7f7265776172647320616d6f756e74203e2062616c616e63650000000000000000600082015250565b6000611d66601883611aad565b9150611d7182611d30565b602082019050919050565b60006020820190508181036000830152611d9581611d59565b9050919050565b7f616d6f756e742063616e206e6f74206265203000000000000000000000000000600082015250565b6000611dd2601383611aad565b9150611ddd82611d9c565b602082019050919050565b60006020820190508181036000830152611e0181611dc5565b9050919050565b7f496e73756666696369656e74207374616b696e6720746f6b656e2062616c616e60008201527f6365000000000000000000000000000000000000000000000000000000000000602082015250565b6000611e64602283611aad565b9150611e6f82611e08565b604082019050919050565b60006020820190508181036000830152611e9381611e57565b9050919050565b6000604082019050611eaf600083018561197e565b611ebc6020830184611881565b9392505050565b60008115159050919050565b611ed881611ec3565b8114611ee357600080fd5b50565b600081519050611ef581611ecf565b92915050565b600060208284031215611f1157611f106117e7565b5b6000611f1f84828501611ee6565b91505092915050565b7f7472616e73666572206661696c65640000000000000000000000000000000000600082015250565b6000611f5e600f83611aad565b9150611f6982611f28565b602082019050919050565b60006020820190508181036000830152611f8d81611f51565b9050919050565b7f416d6f756e74206d7573742062652067726561746572207468616e207a65726f600082015250565b6000611fca602083611aad565b9150611fd582611f94565b602082019050919050565b60006020820190508181036000830152611ff981611fbd565b9050919050565b6000606082019050612015600083018661197e565b612022602083018561197e565b61202f6040830184611881565b949350505050565b7f5472616e73666572206661696c65640000000000000000000000000000000000600082015250565b600061206d600f83611aad565b915061207882612037565b602082019050919050565b6000602082019050818103600083015261209c81612060565b9050919050565b7f6e6f2072657761726420746f2077697468647261770000000000000000000000600082015250565b60006120d9601583611aad565b91506120e4826120a3565b602082019050919050565b6000604082019050612104600083018461197e565b8181036020830152612115816120cc565b905092915050565b7f726577617264206475726174696f6e206e6f742066696e697368656400000000600082015250565b6000612153601c83611aad565b915061215e8261211d565b602082019050919050565b6000602082019050818103600083015261218281612146565b9050919050565b600081519050919050565b60005b838110156121b2578082015181840152602081019050612197565b60008484015250505050565b6000601f19601f8301169050919050565b60006121da82612189565b6121e48185611aad565b93506121f4818560208601612194565b6121fd816121be565b840191505092915050565b6000604082019050818103600083015261222281856121cf565b90506122316020830184611881565b9392505050565b7f4e487b7100000000000000000000000000000000000000000000000000000000600052605160045260246000fdfea2646970667358221220f7528743af840a15b89fe443c74ac1e0e4609f172ac92dca98a1aa7d5b76b18864736f6c634300081b0033",
  "linkReferences": {},
  "deployedLinkReferences": {}
}