{
  "_format": "hh-sol-artifact-1",
  "contractName": "StakingRewards",
  "sourceName": "contracts/StakingRewards.sol",
  "abi": [
    {
      "inputs": [
        {
          "internalType": "contract MockToken",
          "name": "_stakingToken",
          "type": "address"
        },
        {
          "internalType": "contract MockToken",
          "name": "_rewardToken",
          "type": "address"
        },
        {
          "internalType": "uint256",
          "name": "_amount",
          "type": "uint256"
        }
      ],
      "stateMutability": "nonpayable",
      "type": "constructor"
    },
    {
      "inputs": [
        {
          "internalType": "address",
          "name": "account",
          "type": "address"
        },
        {
          "internalType": "string",
          "name": "text",
          "type": "string"
        }
      ],
      "name": "NoRewardsError",
      "type": "error"
    },
    {
      "anonymous": false,
      "inputs": [
        {
          "indexed": true,
          "internalType": "address",
          "name": "user",
          "type": "address"
        },
        {
          "indexed": false,
          "internalType": "uint256",
          "name": "amount",
          "type": "uint256"
        }
      ],
      "name": "Staked",
      "type": "event"
    },
    {
      "anonymous": false,
      "inputs": [
        {
          "indexed": true,
          "internalType": "address",
          "name": "user",
          "type": "address"
        },
        {
          "indexed": true,
          "internalType": "contract MockToken",
          "name": "token",
          "type": "address"
        },
        {
          "indexed": false,
          "internalType": "uint256",
          "name": "amount",
          "type": "uint256"
        }
      ],
      "name": "Withdrawn",
      "type": "event"
    },
    {
      "inputs": [],
      "name": "duration",
      "outputs": [
        {
          "internalType": "uint256",
          "name": "",
          "type": "uint256"
        }
      ],
      "stateMutability": "view",
      "type": "function"
    },
    {
      "inputs": [
        {
          "internalType": "address",
          "name": "_account",
          "type": "address"
        }
      ],
      "name": "earned",
      "outputs": [
        {
          "internalType": "uint256",
          "name": "",
          "type": "uint256"
        }
      ],
      "stateMutability": "nonpayable",
      "type": "function"
    },
    {
      "inputs": [],
      "name": "finishAt",
      "outputs": [
        {
          "internalType": "uint256",
          "name": "",
          "type": "uint256"
        }
      ],
      "stateMutability": "view",
      "type": "function"
    },
    {
      "inputs": [],
      "name": "lastTimeRewardApplicable",
      "outputs": [
        {
          "internalType": "uint256",
          "name": "",
          "type": "uint256"
        }
      ],
      "stateMutability": "view",
      "type": "function"
    },
    {
      "inputs": [
        {
          "internalType": "uint256",
          "name": "_amount",
          "type": "uint256"
        }
      ],
      "name": "notifyRewardAmount",
      "outputs": [],
      "stateMutability": "nonpayable",
      "type": "function"
    },
    {
      "inputs": [],
      "name": "owner",
      "outputs": [
        {
          "internalType": "address",
          "name": "",
          "type": "address"
        }
      ],
      "stateMutability": "view",
      "type": "function"
    },
    {
      "inputs": [],
      "name": "rewardPerTokenStored",
      "outputs": [
        {
          "internalType": "uint256",
          "name": "",
          "type": "uint256"
        }
      ],
      "stateMutability": "view",
      "type": "function"
    },
    {
      "inputs": [],
      "name": "rewardRate",
      "outputs": [
        {
          "internalType": "uint256",
          "name": "",
          "type": "uint256"
        }
      ],
      "stateMutability": "view",
      "type": "function"
    },
    {
      "inputs": [],
      "name": "rewardToken",
      "outputs": [
        {
          "internalType": "contract MockToken",
          "name": "",
          "type": "address"
        }
      ],
      "stateMutability": "view",
      "type": "function"
    },
    {
      "inputs": [],
      "name": "rewardsPerStakingToken",
      "outputs": [
        {
          "internalType": "uint256",
          "name": "",
          "type": "uint256"
        }
      ],
      "stateMutability": "view",
      "type": "function"
    },
    {
      "inputs": [
        {
          "internalType": "uint256",
          "name": "_duration",
          "type": "uint256"
        }
      ],
      "name": "setRewardsDuration",
      "outputs": [],
      "stateMutability": "nonpayable",
      "type": "function"
    },
    {
      "inputs": [
        {
          "internalType": "uint256",
          "name": "_amount",
          "type": "uint256"
        }
      ],
      "name": "stake",
      "outputs": [],
      "stateMutability": "nonpayable",
      "type": "function"
    },
    {
      "inputs": [],
      "name": "stakingToken",
      "outputs": [
        {
          "internalType": "contract MockToken",
          "name": "",
          "type": "address"
        }
      ],
      "stateMutability": "view",
      "type": "function"
    },
    {
      "inputs": [],
      "name": "totalShares",
      "outputs": [
        {
          "internalType": "uint256",
          "name": "",
          "type": "uint256"
        }
      ],
      "stateMutability": "view",
      "type": "function"
    },
    {
      "inputs": [],
      "name": "totalStaked",
      "outputs": [
        {
          "internalType": "uint256",
          "name": "",
          "type": "uint256"
        }
      ],
      "stateMutability": "view",
      "type": "function"
    },
    {
      "inputs": [],
      "name": "updatedAt",
      "outputs": [
        {
          "internalType": "uint256",
          "name": "",
          "type": "uint256"
        }
      ],
      "stateMutability": "view",
      "type": "function"
    },
    {
      "inputs": [
        {
          "internalType": "address",
          "name": "",
          "type": "address"
        }
      ],
      "name": "userRewardPerTokenPaid",
      "outputs": [
        {
          "internalType": "uint256",
          "name": "",
          "type": "uint256"
        }
      ],
      "stateMutability": "view",
      "type": "function"
    },
    {
      "inputs": [
        {
          "internalType": "address",
          "name": "",
          "type": "address"
        }
      ],
      "name": "userShares",
      "outputs": [
        {
          "internalType": "uint256",
          "name": "",
          "type": "uint256"
        }
      ],
      "stateMutability": "view",
      "type": "function"
    },
    {
      "inputs": [
        {
          "internalType": "address",
          "name": "",
          "type": "address"
        }
      ],
      "name": "userStaked",
      "outputs": [
        {
          "internalType": "uint256",
          "name": "",
          "type": "uint256"
        }
      ],
      "stateMutability": "view",
      "type": "function"
    },
    {
      "inputs": [],
      "name": "withdrawRewards",
      "outputs": [],
      "stateMutability": "nonpayable",
      "type": "function"
    },
    {
      "inputs": [
        {
          "internalType": "uint256",
          "name": "_amount",
          "type": "uint256"
        }
      ],
      "name": "withdrawStakingToken",
      "outputs": [],
      "stateMutability": "nonpayable",
      "type": "function"
    }
  ],
  "bytecode": "0x60c060405234801561001057600080fd5b5060405161230f38038061230f83398181016040528101906100329190610297565b33600260006101000a81548173ffffffffffffffffffffffffffffffffffffffff021916908373ffffffffffffffffffffffffffffffffffffffff1602179055506000670de0b6b3a7640000826100899190610319565b90508373ffffffffffffffffffffffffffffffffffffffff1660808173ffffffffffffffffffffffffffffffffffffffff16815250508273ffffffffffffffffffffffffffffffffffffffff1660a08173ffffffffffffffffffffffffffffffffffffffff168152505060a05173ffffffffffffffffffffffffffffffffffffffff166340c10f1930836040518363ffffffff1660e01b8152600401610130929190610379565b600060405180830381600087803b15801561014a57600080fd5b505af115801561015e573d6000803e3d6000fd5b5050505060a05173ffffffffffffffffffffffffffffffffffffffff1663095ea7b330836040518363ffffffff1660e01b815260040161019f929190610379565b6020604051808303816000875af11580156101be573d6000803e3d6000fd5b505050506040513d601f19601f820116820180604052508101906101e291906103da565b5050505050610407565b600080fd5b600073ffffffffffffffffffffffffffffffffffffffff82169050919050565b600061021c826101f1565b9050919050565b600061022e82610211565b9050919050565b61023e81610223565b811461024957600080fd5b50565b60008151905061025b81610235565b92915050565b6000819050919050565b61027481610261565b811461027f57600080fd5b50565b6000815190506102918161026b565b92915050565b6000806000606084860312156102b0576102af6101ec565b5b60006102be8682870161024c565b93505060206102cf8682870161024c565b92505060406102e086828701610282565b9150509250925092565b7f4e487b7100000000000000000000000000000000000000000000000000000000600052601160045260246000fd5b600061032482610261565b915061032f83610261565b925082820261033d81610261565b91508282048414831517610354576103536102ea565b5b5092915050565b61036481610211565b82525050565b61037381610261565b82525050565b600060408201905061038e600083018561035b565b61039b602083018461036a565b9392505050565b60008115159050919050565b6103b7816103a2565b81146103c257600080fd5b50565b6000815190506103d4816103ae565b92915050565b6000602082840312156103f0576103ef6101ec565b5b60006103fe848285016103c5565b91505092915050565b60805160a051611eb261045d600039600081816107f50152818161123701528181611317015261154a01526000818161091e01528181610a8701528181610b9e01528181610c7e0152610eae0152611eb26000f3fe608060405234801561001057600080fd5b50600436106101365760003560e01c8063817b1cd2116100b8578063c7b8981c1161007c578063c7b8981c1461032d578063cc1a378f14610337578063de69b3aa14610353578063df136d6514610383578063f1849dd6146103a1578063f7c618c1146103bf57610136565b8063817b1cd2146102755780638b876347146102935780638da5cb5b146102c3578063a694fc3a146102e1578063acc3a939146102fd57610136565b806372f702f3116100ff57806372f702f3146101e15780637519ab50146101ff5780637670ea3f1461021d5780637b0a47ee1461023957806380faa57d1461025757610136565b80628cc2621461013b5780630fb5a6b41461016b5780633a98ef39146101895780633c6b16ab146101a757806367d3b488146101c3575b600080fd5b610155600480360381019061015091906115cf565b6103dd565b6040516101629190611615565b60405180910390f35b61017361052a565b6040516101809190611615565b60405180910390f35b610191610530565b60405161019e9190611615565b60405180910390f35b6101c160048036038101906101bc919061165c565b610536565b005b6101cb610916565b6040516101d89190611615565b60405180910390f35b6101e961091c565b6040516101f691906116e8565b60405180910390f35b610207610940565b6040516102149190611615565b60405180910390f35b6102376004803603810190610232919061165c565b610946565b005b610241610d07565b60405161024e9190611615565b60405180910390f35b61025f610d0d565b60405161026c9190611615565b60405180910390f35b61027d610d27565b60405161028a9190611615565b60405180910390f35b6102ad60048036038101906102a891906115cf565b610d2d565b6040516102ba9190611615565b60405180910390f35b6102cb610d45565b6040516102d89190611712565b60405180910390f35b6102fb60048036038101906102f6919061165c565b610d6b565b005b610317600480360381019061031291906115cf565b611051565b6040516103249190611615565b60405180910390f35b610335611069565b005b610351600480360381019061034c919061165c565b61139f565b005b61036d600480360381019061036891906115cf565b6114c0565b60405161037a9190611615565b60405180910390f35b61038b6114d8565b6040516103989190611615565b60405180910390f35b6103a96114de565b6040516103b69190611615565b60405180910390f35b6103c7611548565b6040516103d491906116e8565b60405180910390f35b6000670de0b6b3a7640000600a60008473ffffffffffffffffffffffffffffffffffffffff1673ffffffffffffffffffffffffffffffffffffffff168152602001908152602001600020546104306114de565b61043a919061175c565b600960008573ffffffffffffffffffffffffffffffffffffffff1673ffffffffffffffffffffffffffffffffffffffff168152602001908152602001600020546104849190611790565b61048e9190611801565b600860008473ffffffffffffffffffffffffffffffffffffffff1673ffffffffffffffffffffffffffffffffffffffff16815260200190815260200160002060008282546104dc9190611832565b92505081905550600860008373ffffffffffffffffffffffffffffffffffffffff1673ffffffffffffffffffffffffffffffffffffffff168152602001908152602001600020549050919050565b60035481565b60005481565b600260009054906101000a900473ffffffffffffffffffffffffffffffffffffffff1673ffffffffffffffffffffffffffffffffffffffff163373ffffffffffffffffffffffffffffffffffffffff16146105c6576040517f08c379a00000000000000000000000000000000000000000000000000000000081526004016105bd906118c3565b60405180910390fd5b60006105d06114de565b6007819055506105de610d0d565b600581905550600073ffffffffffffffffffffffffffffffffffffffff168173ffffffffffffffffffffffffffffffffffffffff16146106ab57610621816103dd565b600860008373ffffffffffffffffffffffffffffffffffffffff1673ffffffffffffffffffffffffffffffffffffffff16815260200190815260200160002081905550600754600a60008373ffffffffffffffffffffffffffffffffffffffff1673ffffffffffffffffffffffffffffffffffffffff168152602001908152602001600020819055505b6000600354116106f0576040517f08c379a00000000000000000000000000000000000000000000000000000000081526004016106e790611955565b60405180910390fd5b60008211610733576040517f08c379a000000000000000000000000000000000000000000000000000000000815260040161072a906119e7565b60405180910390fd5b6000670de0b6b3a7640000836107499190611790565b905060045442111561076e57600354816107639190611801565b6006819055506107ae565b60004260045461077e919061175c565b60065461078b9190611790565b9050600354828261079c9190611832565b6107a69190611801565b600681905550505b6000600654116107f3576040517f08c379a00000000000000000000000000000000000000000000000000000000081526004016107ea90611a53565b60405180910390fd5b7f000000000000000000000000000000000000000000000000000000000000000073ffffffffffffffffffffffffffffffffffffffff166370a08231306040518263ffffffff1660e01b815260040161084c9190611712565b602060405180830381865afa158015610869573d6000803e3d6000fd5b505050506040513d601f19601f8201168201806040525081019061088d9190611a88565b60065460035461089d9190611790565b11156108de576040517f08c379a00000000000000000000000000000000000000000000000000000000081526004016108d590611b01565b60405180910390fd5b806000808282546108ef9190611832565b92505081905550600354426109049190611832565b60048190555042600581905550505050565b60045481565b7f000000000000000000000000000000000000000000000000000000000000000081565b60055481565b3361094f6114de565b60078190555061095d610d0d565b600581905550600073ffffffffffffffffffffffffffffffffffffffff168173ffffffffffffffffffffffffffffffffffffffff1614610a2a576109a0816103dd565b600860008373ffffffffffffffffffffffffffffffffffffffff1673ffffffffffffffffffffffffffffffffffffffff16815260200190815260200160002081905550600754600a60008373ffffffffffffffffffffffffffffffffffffffff1673ffffffffffffffffffffffffffffffffffffffff168152602001908152602001600020819055505b6000670de0b6b3a764000083610a409190611790565b905060008111610a85576040517f08c379a0000000000000000000000000000000000000000000000000000000008152600401610a7c90611b6d565b60405180910390fd5b7f000000000000000000000000000000000000000000000000000000000000000073ffffffffffffffffffffffffffffffffffffffff166370a08231336040518263ffffffff1660e01b8152600401610ade9190611712565b602060405180830381865afa158015610afb573d6000803e3d6000fd5b505050506040513d601f19601f82011682018060405250810190610b1f9190611a88565b811115610b2b57600080fd5b80600960003373ffffffffffffffffffffffffffffffffffffffff1673ffffffffffffffffffffffffffffffffffffffff1681526020019081526020016000206000828254610b7a919061175c565b925050819055508060016000828254610b93919061175c565b9250508190555060007f000000000000000000000000000000000000000000000000000000000000000073ffffffffffffffffffffffffffffffffffffffff1663a9059cbb33846040518363ffffffff1660e01b8152600401610bf7929190611b8d565b6020604051808303816000875af1158015610c16573d6000803e3d6000fd5b505050506040513d601f19601f82011682018060405250810190610c3a9190611bee565b905080610c7c576040517f08c379a0000000000000000000000000000000000000000000000000000000008152600401610c7390611c67565b60405180910390fd5b7f000000000000000000000000000000000000000000000000000000000000000073ffffffffffffffffffffffffffffffffffffffff163373ffffffffffffffffffffffffffffffffffffffff167fd1c19fbcd4551a5edfb66d43d2e337c04837afda3482b42bdf569a8fccdae5fb84604051610cf99190611615565b60405180910390a350505050565b60065481565b60006004544210610d2057600454610d22565b425b905090565b60015481565b600a6020528060005260406000206000915090505481565b600260009054906101000a900473ffffffffffffffffffffffffffffffffffffffff1681565b33610d746114de565b600781905550610d82610d0d565b600581905550600073ffffffffffffffffffffffffffffffffffffffff168173ffffffffffffffffffffffffffffffffffffffff1614610e4f57610dc5816103dd565b600860008373ffffffffffffffffffffffffffffffffffffffff1673ffffffffffffffffffffffffffffffffffffffff16815260200190815260200160002081905550600754600a60008373ffffffffffffffffffffffffffffffffffffffff1673ffffffffffffffffffffffffffffffffffffffff168152602001908152602001600020819055505b6000670de0b6b3a764000083610e659190611790565b905060008111610eaa576040517f08c379a0000000000000000000000000000000000000000000000000000000008152600401610ea190611cd3565b60405180910390fd5b60007f000000000000000000000000000000000000000000000000000000000000000073ffffffffffffffffffffffffffffffffffffffff166323b872dd3330856040518463ffffffff1660e01b8152600401610f0993929190611cf3565b6020604051808303816000875af1158015610f28573d6000803e3d6000fd5b505050506040513d601f19601f82011682018060405250810190610f4c9190611bee565b905080610f8e576040517f08c379a0000000000000000000000000000000000000000000000000000000008152600401610f8590611d76565b60405180910390fd5b3373ffffffffffffffffffffffffffffffffffffffff167f9e71bc8eea02a63969f509818f2dafb9254532904319f9dbda79b67bd34a5f3d83604051610fd49190611615565b60405180910390a281600960003373ffffffffffffffffffffffffffffffffffffffff1673ffffffffffffffffffffffffffffffffffffffff168152602001908152602001600020600082825461102b9190611832565b9250508190555081600160008282546110449190611832565b9250508190555050505050565b60096020528060005260406000206000915090505481565b336110726114de565b600781905550611080610d0d565b600581905550600073ffffffffffffffffffffffffffffffffffffffff168173ffffffffffffffffffffffffffffffffffffffff161461114d576110c3816103dd565b600860008373ffffffffffffffffffffffffffffffffffffffff1673ffffffffffffffffffffffffffffffffffffffff16815260200190815260200160002081905550600754600a60008373ffffffffffffffffffffffffffffffffffffffff1673ffffffffffffffffffffffffffffffffffffffff168152602001908152602001600020819055505b6000600860003373ffffffffffffffffffffffffffffffffffffffff1673ffffffffffffffffffffffffffffffffffffffff168152602001908152602001600020549050600081036111d657336040517f77f002ba0000000000000000000000000000000000000000000000000000000081526004016111cd9190611de2565b60405180910390fd5b6000600860003373ffffffffffffffffffffffffffffffffffffffff1673ffffffffffffffffffffffffffffffffffffffff168152602001908152602001600020819055508060008082825461122c919061175c565b9250508190555060007f000000000000000000000000000000000000000000000000000000000000000073ffffffffffffffffffffffffffffffffffffffff1663a9059cbb33846040518363ffffffff1660e01b8152600401611290929190611b8d565b6020604051808303816000875af11580156112af573d6000803e3d6000fd5b505050506040513d601f19601f820116820180604052508101906112d39190611bee565b905080611315576040517f08c379a000000000000000000000000000000000000000000000000000000000815260040161130c90611c67565b60405180910390fd5b7f000000000000000000000000000000000000000000000000000000000000000073ffffffffffffffffffffffffffffffffffffffff163373ffffffffffffffffffffffffffffffffffffffff167fd1c19fbcd4551a5edfb66d43d2e337c04837afda3482b42bdf569a8fccdae5fb846040516113929190611615565b60405180910390a3505050565b600260009054906101000a900473ffffffffffffffffffffffffffffffffffffffff1673ffffffffffffffffffffffffffffffffffffffff163373ffffffffffffffffffffffffffffffffffffffff161461142f576040517f08c379a0000000000000000000000000000000000000000000000000000000008152600401611426906118c3565b60405180910390fd5b4260045410611473576040517f08c379a000000000000000000000000000000000000000000000000000000000815260040161146a90611e5c565b60405180910390fd5b600081116114b6576040517f08c379a00000000000000000000000000000000000000000000000000000000081526004016114ad90611955565b60405180910390fd5b8060038190555050565b60086020528060005260406000206000915090505481565b60075481565b600080600154036114f3576007549050611545565b600154670de0b6b3a764000060055461150a610d0d565b611514919061175c565b6006546115219190611790565b61152b9190611790565b6115359190611801565b6007546115429190611832565b90505b90565b7f000000000000000000000000000000000000000000000000000000000000000081565b600080fd5b600073ffffffffffffffffffffffffffffffffffffffff82169050919050565b600061159c82611571565b9050919050565b6115ac81611591565b81146115b757600080fd5b50565b6000813590506115c9816115a3565b92915050565b6000602082840312156115e5576115e461156c565b5b60006115f3848285016115ba565b91505092915050565b6000819050919050565b61160f816115fc565b82525050565b600060208201905061162a6000830184611606565b92915050565b611639816115fc565b811461164457600080fd5b50565b60008135905061165681611630565b92915050565b6000602082840312156116725761167161156c565b5b600061168084828501611647565b91505092915050565b6000819050919050565b60006116ae6116a96116a484611571565b611689565b611571565b9050919050565b60006116c082611693565b9050919050565b60006116d2826116b5565b9050919050565b6116e2816116c7565b82525050565b60006020820190506116fd60008301846116d9565b92915050565b61170c81611591565b82525050565b60006020820190506117276000830184611703565b92915050565b7f4e487b7100000000000000000000000000000000000000000000000000000000600052601160045260246000fd5b6000611767826115fc565b9150611772836115fc565b925082820390508181111561178a5761178961172d565b5b92915050565b600061179b826115fc565b91506117a6836115fc565b92508282026117b4816115fc565b915082820484148315176117cb576117ca61172d565b5b5092915050565b7f4e487b7100000000000000000000000000000000000000000000000000000000600052601260045260246000fd5b600061180c826115fc565b9150611817836115fc565b925082611827576118266117d2565b5b828204905092915050565b600061183d826115fc565b9150611848836115fc565b92508282019050808211156118605761185f61172d565b5b92915050565b600082825260208201905092915050565b7f6e6f74206f776e65720000000000000000000000000000000000000000000000600082015250565b60006118ad600983611866565b91506118b882611877565b602082019050919050565b600060208201905081810360008301526118dc816118a0565b9050919050565b7f6475726174696f6e2073686f756c642062652067726561746572207468616e2060008201527f7a65726f00000000000000000000000000000000000000000000000000000000602082015250565b600061193f602483611866565b915061194a826118e3565b604082019050919050565b6000602082019050818103600083015261196e81611932565b9050919050565b7f726577617264416d6f756e742073686f756c642062652067726561746572207460008201527f68616e207a65726f000000000000000000000000000000000000000000000000602082015250565b60006119d1602883611866565b91506119dc82611975565b604082019050919050565b60006020820190508181036000830152611a00816119c4565b9050919050565b7f726577617264526174652063616e206e6f742062652030000000000000000000600082015250565b6000611a3d601783611866565b9150611a4882611a07565b602082019050919050565b60006020820190508181036000830152611a6c81611a30565b9050919050565b600081519050611a8281611630565b92915050565b600060208284031215611a9e57611a9d61156c565b5b6000611aac84828501611a73565b91505092915050565b7f7265776172647320616d6f756e74203e2062616c616e63650000000000000000600082015250565b6000611aeb601883611866565b9150611af682611ab5565b602082019050919050565b60006020820190508181036000830152611b1a81611ade565b9050919050565b7f616d6f756e742063616e206e6f74206265203000000000000000000000000000600082015250565b6000611b57601383611866565b9150611b6282611b21565b602082019050919050565b60006020820190508181036000830152611b8681611b4a565b9050919050565b6000604082019050611ba26000830185611703565b611baf6020830184611606565b9392505050565b60008115159050919050565b611bcb81611bb6565b8114611bd657600080fd5b50565b600081519050611be881611bc2565b92915050565b600060208284031215611c0457611c0361156c565b5b6000611c1284828501611bd9565b91505092915050565b7f7472616e73666572206661696c65640000000000000000000000000000000000600082015250565b6000611c51600f83611866565b9150611c5c82611c1b565b602082019050919050565b60006020820190508181036000830152611c8081611c44565b9050919050565b7f416d6f756e74206d7573742062652067726561746572207468616e207a65726f600082015250565b6000611cbd602083611866565b9150611cc882611c87565b602082019050919050565b60006020820190508181036000830152611cec81611cb0565b9050919050565b6000606082019050611d086000830186611703565b611d156020830185611703565b611d226040830184611606565b949350505050565b7f5472616e73666572206661696c65640000000000000000000000000000000000600082015250565b6000611d60600f83611866565b9150611d6b82611d2a565b602082019050919050565b60006020820190508181036000830152611d8f81611d53565b9050919050565b7f6e6f2072657761726420746f2077697468647261770000000000000000000000600082015250565b6000611dcc601583611866565b9150611dd782611d96565b602082019050919050565b6000604082019050611df76000830184611703565b8181036020830152611e0881611dbf565b905092915050565b7f726577617264206475726174696f6e206e6f742066696e697368656400000000600082015250565b6000611e46601c83611866565b9150611e5182611e10565b602082019050919050565b60006020820190508181036000830152611e7581611e39565b905091905056fea26469706673582212206afb1379c638d067ea1cd72d782d020f950eeb318580c0ef978c62fbb97c6f4a64736f6c634300081b0033",
  "linkReferences": {},
  "deployedLinkReferences": {}
}