{
  "_format": "hh-sol-artifact-1",
  "contractName": "StakingRewards",
  "sourceName": "contracts/StakingRewards.sol",
  "abi": [
    {
      "inputs": [
        {
          "internalType": "contract MockToken",
          "name": "_stakingToken",
          "type": "address"
        },
        {
          "internalType": "contract MockToken",
          "name": "_rewardToken",
          "type": "address"
        },
        {
          "internalType": "uint256",
          "name": "_amount",
          "type": "uint256"
        }
      ],
      "stateMutability": "nonpayable",
      "type": "constructor"
    },
    {
      "inputs": [
        {
          "internalType": "address",
          "name": "account",
          "type": "address"
        },
        {
          "internalType": "string",
          "name": "text",
          "type": "string"
        }
      ],
      "name": "NoRewardsError",
      "type": "error"
    },
    {
      "anonymous": false,
      "inputs": [
        {
          "indexed": true,
          "internalType": "address",
          "name": "user",
          "type": "address"
        },
        {
          "indexed": false,
          "internalType": "uint256",
          "name": "amount",
          "type": "uint256"
        }
      ],
      "name": "Staked",
      "type": "event"
    },
    {
      "anonymous": false,
      "inputs": [
        {
          "indexed": true,
          "internalType": "address",
          "name": "user",
          "type": "address"
        },
        {
          "indexed": true,
          "internalType": "contract MockToken",
          "name": "token",
          "type": "address"
        },
        {
          "indexed": false,
          "internalType": "uint256",
          "name": "amount",
          "type": "uint256"
        }
      ],
      "name": "Withdrawn",
      "type": "event"
    },
    {
      "inputs": [],
      "name": "duration",
      "outputs": [
        {
          "internalType": "uint256",
          "name": "",
          "type": "uint256"
        }
      ],
      "stateMutability": "view",
      "type": "function"
    },
    {
      "inputs": [
        {
          "internalType": "address",
          "name": "_account",
          "type": "address"
        }
      ],
      "name": "earned",
      "outputs": [
        {
          "internalType": "uint256",
          "name": "",
          "type": "uint256"
        }
      ],
      "stateMutability": "nonpayable",
      "type": "function"
    },
    {
      "inputs": [],
      "name": "finishAt",
      "outputs": [
        {
          "internalType": "uint256",
          "name": "",
          "type": "uint256"
        }
      ],
      "stateMutability": "view",
      "type": "function"
    },
    {
      "inputs": [],
      "name": "lastTimeRewardApplicable",
      "outputs": [
        {
          "internalType": "uint256",
          "name": "",
          "type": "uint256"
        }
      ],
      "stateMutability": "view",
      "type": "function"
    },
    {
      "inputs": [
        {
          "internalType": "uint256",
          "name": "_amount",
          "type": "uint256"
        }
      ],
      "name": "notifyRewardAmount",
      "outputs": [],
      "stateMutability": "nonpayable",
      "type": "function"
    },
    {
      "inputs": [],
      "name": "owner",
      "outputs": [
        {
          "internalType": "address",
          "name": "",
          "type": "address"
        }
      ],
      "stateMutability": "view",
      "type": "function"
    },
    {
      "inputs": [],
      "name": "rewardPerTokenStored",
      "outputs": [
        {
          "internalType": "uint256",
          "name": "",
          "type": "uint256"
        }
      ],
      "stateMutability": "view",
      "type": "function"
    },
    {
      "inputs": [],
      "name": "rewardRate",
      "outputs": [
        {
          "internalType": "uint256",
          "name": "",
          "type": "uint256"
        }
      ],
      "stateMutability": "view",
      "type": "function"
    },
    {
      "inputs": [],
      "name": "rewardToken",
      "outputs": [
        {
          "internalType": "contract MockToken",
          "name": "",
          "type": "address"
        }
      ],
      "stateMutability": "view",
      "type": "function"
    },
    {
      "inputs": [],
      "name": "rewardsPerStakingToken",
      "outputs": [
        {
          "internalType": "uint256",
          "name": "",
          "type": "uint256"
        }
      ],
      "stateMutability": "view",
      "type": "function"
    },
    {
      "inputs": [
        {
          "internalType": "uint256",
          "name": "_duration",
          "type": "uint256"
        }
      ],
      "name": "setRewardsDuration",
      "outputs": [],
      "stateMutability": "nonpayable",
      "type": "function"
    },
    {
      "inputs": [
        {
          "internalType": "uint256",
          "name": "_amount",
          "type": "uint256"
        }
      ],
      "name": "stake",
      "outputs": [],
      "stateMutability": "nonpayable",
      "type": "function"
    },
    {
      "inputs": [],
      "name": "stakingToken",
      "outputs": [
        {
          "internalType": "contract MockToken",
          "name": "",
          "type": "address"
        }
      ],
      "stateMutability": "view",
      "type": "function"
    },
    {
      "inputs": [],
      "name": "totalShares",
      "outputs": [
        {
          "internalType": "uint256",
          "name": "",
          "type": "uint256"
        }
      ],
      "stateMutability": "view",
      "type": "function"
    },
    {
      "inputs": [],
      "name": "totalStaked",
      "outputs": [
        {
          "internalType": "uint256",
          "name": "",
          "type": "uint256"
        }
      ],
      "stateMutability": "view",
      "type": "function"
    },
    {
      "inputs": [],
      "name": "updatedAt",
      "outputs": [
        {
          "internalType": "uint256",
          "name": "",
          "type": "uint256"
        }
      ],
      "stateMutability": "view",
      "type": "function"
    },
    {
      "inputs": [
        {
          "internalType": "address",
          "name": "",
          "type": "address"
        }
      ],
      "name": "userRewardPerTokenPaid",
      "outputs": [
        {
          "internalType": "uint256",
          "name": "",
          "type": "uint256"
        }
      ],
      "stateMutability": "view",
      "type": "function"
    },
    {
      "inputs": [
        {
          "internalType": "address",
          "name": "",
          "type": "address"
        }
      ],
      "name": "userShares",
      "outputs": [
        {
          "internalType": "uint256",
          "name": "",
          "type": "uint256"
        }
      ],
      "stateMutability": "view",
      "type": "function"
    },
    {
      "inputs": [
        {
          "internalType": "address",
          "name": "",
          "type": "address"
        }
      ],
      "name": "userStaked",
      "outputs": [
        {
          "internalType": "uint256",
          "name": "",
          "type": "uint256"
        }
      ],
      "stateMutability": "view",
      "type": "function"
    },
    {
      "inputs": [],
      "name": "withdrawRewards",
      "outputs": [],
      "stateMutability": "nonpayable",
      "type": "function"
    },
    {
      "inputs": [
        {
          "internalType": "uint256",
          "name": "_amount",
          "type": "uint256"
        }
      ],
      "name": "withdrawStakingToken",
      "outputs": [],
      "stateMutability": "nonpayable",
      "type": "function"
    }
  ],
  "bytecode": "0x60c060405234801561001057600080fd5b5060405161235d38038061235d833981810160405281019061003291906101fd565b33600260006101000a81548173ffffffffffffffffffffffffffffffffffffffff021916908373ffffffffffffffffffffffffffffffffffffffff1602179055508273ffffffffffffffffffffffffffffffffffffffff1660808173ffffffffffffffffffffffffffffffffffffffff16815250508173ffffffffffffffffffffffffffffffffffffffff1660a08173ffffffffffffffffffffffffffffffffffffffff168152505060a05173ffffffffffffffffffffffffffffffffffffffff166340c10f1930836040518363ffffffff1660e01b815260040161011892919061026e565b600060405180830381600087803b15801561013257600080fd5b505af1158015610146573d6000803e3d6000fd5b50505050505050610297565b600080fd5b600073ffffffffffffffffffffffffffffffffffffffff82169050919050565b600061018282610157565b9050919050565b600061019482610177565b9050919050565b6101a481610189565b81146101af57600080fd5b50565b6000815190506101c18161019b565b92915050565b6000819050919050565b6101da816101c7565b81146101e557600080fd5b50565b6000815190506101f7816101d1565b92915050565b60008060006060848603121561021657610215610152565b5b6000610224868287016101b2565b9350506020610235868287016101b2565b9250506040610246868287016101e8565b9150509250925092565b61025981610177565b82525050565b610268816101c7565b82525050565b60006040820190506102836000830185610250565b610290602083018461025f565b9392505050565b60805160a0516120706102ed600039600081816107dd0152818161122b0152818161130b015261153e01526000818161090501528181610a5601528181610b6d01528181610c4d0152610ea301526120706000f3fe608060405234801561001057600080fd5b50600436106101365760003560e01c8063817b1cd2116100b8578063c7b8981c1161007c578063c7b8981c1461032d578063cc1a378f14610337578063de69b3aa14610353578063df136d6514610383578063f1849dd6146103a1578063f7c618c1146103bf57610136565b8063817b1cd2146102755780638b876347146102935780638da5cb5b146102c3578063a694fc3a146102e1578063acc3a939146102fd57610136565b806372f702f3116100ff57806372f702f3146101e15780637519ab50146101ff5780637670ea3f1461021d5780637b0a47ee1461023957806380faa57d1461025757610136565b80628cc2621461013b5780630fb5a6b41461016b5780633a98ef39146101895780633c6b16ab146101a757806367d3b488146101c3575b600080fd5b610155600480360381019061015091906116af565b6103dd565b60405161016291906116f5565b60405180910390f35b61017361052a565b60405161018091906116f5565b60405180910390f35b610191610530565b60405161019e91906116f5565b60405180910390f35b6101c160048036038101906101bc919061173c565b610536565b005b6101cb6108fd565b6040516101d891906116f5565b60405180910390f35b6101e9610903565b6040516101f691906117c8565b60405180910390f35b610207610927565b60405161021491906116f5565b60405180910390f35b6102376004803603810190610232919061173c565b61092d565b005b610241610cd5565b60405161024e91906116f5565b60405180910390f35b61025f610cdb565b60405161026c91906116f5565b60405180910390f35b61027d610cf5565b60405161028a91906116f5565b60405180910390f35b6102ad60048036038101906102a891906116af565b610cfb565b6040516102ba91906116f5565b60405180910390f35b6102cb610d13565b6040516102d891906117f2565b60405180910390f35b6102fb60048036038101906102f6919061173c565b610d39565b005b610317600480360381019061031291906116af565b611045565b60405161032491906116f5565b60405180910390f35b61033561105d565b005b610351600480360381019061034c919061173c565b611393565b005b61036d600480360381019061036891906116af565b6114b4565b60405161037a91906116f5565b60405180910390f35b61038b6114cc565b60405161039891906116f5565b60405180910390f35b6103a96114d2565b6040516103b691906116f5565b60405180910390f35b6103c761153c565b6040516103d491906117c8565b60405180910390f35b6000670de0b6b3a7640000600a60008473ffffffffffffffffffffffffffffffffffffffff1673ffffffffffffffffffffffffffffffffffffffff168152602001908152602001600020546104306114d2565b61043a919061183c565b600960008573ffffffffffffffffffffffffffffffffffffffff1673ffffffffffffffffffffffffffffffffffffffff168152602001908152602001600020546104849190611870565b61048e91906118e1565b600860008473ffffffffffffffffffffffffffffffffffffffff1673ffffffffffffffffffffffffffffffffffffffff16815260200190815260200160002060008282546104dc9190611912565b92505081905550600860008373ffffffffffffffffffffffffffffffffffffffff1673ffffffffffffffffffffffffffffffffffffffff168152602001908152602001600020549050919050565b60035481565b60005481565b600260009054906101000a900473ffffffffffffffffffffffffffffffffffffffff1673ffffffffffffffffffffffffffffffffffffffff163373ffffffffffffffffffffffffffffffffffffffff16146105c6576040517f08c379a00000000000000000000000000000000000000000000000000000000081526004016105bd906119a3565b60405180910390fd5b60006105d06114d2565b6007819055506105de610cdb565b600581905550600073ffffffffffffffffffffffffffffffffffffffff168173ffffffffffffffffffffffffffffffffffffffff16146106ab57610621816103dd565b600860008373ffffffffffffffffffffffffffffffffffffffff1673ffffffffffffffffffffffffffffffffffffffff16815260200190815260200160002081905550600754600a60008373ffffffffffffffffffffffffffffffffffffffff1673ffffffffffffffffffffffffffffffffffffffff168152602001908152602001600020819055505b6000600354116106f0576040517f08c379a00000000000000000000000000000000000000000000000000000000081526004016106e790611a35565b60405180910390fd5b60008211610733576040517f08c379a000000000000000000000000000000000000000000000000000000000815260040161072a90611ac7565b60405180910390fd5b600454421115610756576003548261074b91906118e1565b600681905550610796565b600042600454610766919061183c565b6006546107739190611870565b905060035483826107849190611912565b61078e91906118e1565b600681905550505b6000600654116107db576040517f08c379a00000000000000000000000000000000000000000000000000000000081526004016107d290611b33565b60405180910390fd5b7f000000000000000000000000000000000000000000000000000000000000000073ffffffffffffffffffffffffffffffffffffffff166370a08231306040518263ffffffff1660e01b815260040161083491906117f2565b602060405180830381865afa158015610851573d6000803e3d6000fd5b505050506040513d601f19601f820116820180604052508101906108759190611b68565b6006546003546108859190611870565b11156108c6576040517f08c379a00000000000000000000000000000000000000000000000000000000081526004016108bd90611be1565b60405180910390fd5b816000808282546108d79190611912565b92505081905550600354426108ec9190611912565b600481905550426005819055505050565b60045481565b7f000000000000000000000000000000000000000000000000000000000000000081565b60055481565b336109366114d2565b600781905550610944610cdb565b600581905550600073ffffffffffffffffffffffffffffffffffffffff168173ffffffffffffffffffffffffffffffffffffffff1614610a1157610987816103dd565b600860008373ffffffffffffffffffffffffffffffffffffffff1673ffffffffffffffffffffffffffffffffffffffff16815260200190815260200160002081905550600754600a60008373ffffffffffffffffffffffffffffffffffffffff1673ffffffffffffffffffffffffffffffffffffffff168152602001908152602001600020819055505b60008211610a54576040517f08c379a0000000000000000000000000000000000000000000000000000000008152600401610a4b90611c4d565b60405180910390fd5b7f000000000000000000000000000000000000000000000000000000000000000073ffffffffffffffffffffffffffffffffffffffff166370a08231336040518263ffffffff1660e01b8152600401610aad91906117f2565b602060405180830381865afa158015610aca573d6000803e3d6000fd5b505050506040513d601f19601f82011682018060405250810190610aee9190611b68565b821115610afa57600080fd5b81600960003373ffffffffffffffffffffffffffffffffffffffff1673ffffffffffffffffffffffffffffffffffffffff1681526020019081526020016000206000828254610b49919061183c565b925050819055508160016000828254610b62919061183c565b9250508190555060007f000000000000000000000000000000000000000000000000000000000000000073ffffffffffffffffffffffffffffffffffffffff1663a9059cbb33856040518363ffffffff1660e01b8152600401610bc6929190611c6d565b6020604051808303816000875af1158015610be5573d6000803e3d6000fd5b505050506040513d601f19601f82011682018060405250810190610c099190611cce565b905080610c4b576040517f08c379a0000000000000000000000000000000000000000000000000000000008152600401610c4290611d47565b60405180910390fd5b7f000000000000000000000000000000000000000000000000000000000000000073ffffffffffffffffffffffffffffffffffffffff163373ffffffffffffffffffffffffffffffffffffffff167fd1c19fbcd4551a5edfb66d43d2e337c04837afda3482b42bdf569a8fccdae5fb85604051610cc891906116f5565b60405180910390a3505050565b60065481565b60006004544210610cee57600454610cf0565b425b905090565b60015481565b600a6020528060005260406000206000915090505481565b600260009054906101000a900473ffffffffffffffffffffffffffffffffffffffff1681565b33610d426114d2565b600781905550610d50610cdb565b600581905550600073ffffffffffffffffffffffffffffffffffffffff168173ffffffffffffffffffffffffffffffffffffffff1614610e1d57610d93816103dd565b600860008373ffffffffffffffffffffffffffffffffffffffff1673ffffffffffffffffffffffffffffffffffffffff16815260200190815260200160002081905550600754600a60008373ffffffffffffffffffffffffffffffffffffffff1673ffffffffffffffffffffffffffffffffffffffff168152602001908152602001600020819055505b610e5c6040518060400160405280600681526020017f616d6f756e74000000000000000000000000000000000000000000000000000081525083611560565b60008211610e9f576040517f08c379a0000000000000000000000000000000000000000000000000000000008152600401610e9690611db3565b60405180910390fd5b60007f000000000000000000000000000000000000000000000000000000000000000073ffffffffffffffffffffffffffffffffffffffff166323b872dd3330866040518463ffffffff1660e01b8152600401610efe93929190611dd3565b6020604051808303816000875af1158015610f1d573d6000803e3d6000fd5b505050506040513d601f19601f82011682018060405250810190610f419190611cce565b905080610f83576040517f08c379a0000000000000000000000000000000000000000000000000000000008152600401610f7a90611e56565b60405180910390fd5b3373ffffffffffffffffffffffffffffffffffffffff167f9e71bc8eea02a63969f509818f2dafb9254532904319f9dbda79b67bd34a5f3d84604051610fc991906116f5565b60405180910390a282600960003373ffffffffffffffffffffffffffffffffffffffff1673ffffffffffffffffffffffffffffffffffffffff16815260200190815260200160002060008282546110209190611912565b9250508190555082600160008282546110399190611912565b92505081905550505050565b60096020528060005260406000206000915090505481565b336110666114d2565b600781905550611074610cdb565b600581905550600073ffffffffffffffffffffffffffffffffffffffff168173ffffffffffffffffffffffffffffffffffffffff1614611141576110b7816103dd565b600860008373ffffffffffffffffffffffffffffffffffffffff1673ffffffffffffffffffffffffffffffffffffffff16815260200190815260200160002081905550600754600a60008373ffffffffffffffffffffffffffffffffffffffff1673ffffffffffffffffffffffffffffffffffffffff168152602001908152602001600020819055505b6000600860003373ffffffffffffffffffffffffffffffffffffffff1673ffffffffffffffffffffffffffffffffffffffff168152602001908152602001600020549050600081036111ca57336040517f77f002ba0000000000000000000000000000000000000000000000000000000081526004016111c19190611ec2565b60405180910390fd5b6000600860003373ffffffffffffffffffffffffffffffffffffffff1673ffffffffffffffffffffffffffffffffffffffff1681526020019081526020016000208190555080600080828254611220919061183c565b9250508190555060007f000000000000000000000000000000000000000000000000000000000000000073ffffffffffffffffffffffffffffffffffffffff1663a9059cbb33846040518363ffffffff1660e01b8152600401611284929190611c6d565b6020604051808303816000875af11580156112a3573d6000803e3d6000fd5b505050506040513d601f19601f820116820180604052508101906112c79190611cce565b905080611309576040517f08c379a000000000000000000000000000000000000000000000000000000000815260040161130090611d47565b60405180910390fd5b7f000000000000000000000000000000000000000000000000000000000000000073ffffffffffffffffffffffffffffffffffffffff163373ffffffffffffffffffffffffffffffffffffffff167fd1c19fbcd4551a5edfb66d43d2e337c04837afda3482b42bdf569a8fccdae5fb8460405161138691906116f5565b60405180910390a3505050565b600260009054906101000a900473ffffffffffffffffffffffffffffffffffffffff1673ffffffffffffffffffffffffffffffffffffffff163373ffffffffffffffffffffffffffffffffffffffff1614611423576040517f08c379a000000000000000000000000000000000000000000000000000000000815260040161141a906119a3565b60405180910390fd5b4260045410611467576040517f08c379a000000000000000000000000000000000000000000000000000000000815260040161145e90611f3c565b60405180910390fd5b600081116114aa576040517f08c379a00000000000000000000000000000000000000000000000000000000081526004016114a190611a35565b60405180910390fd5b8060038190555050565b60086020528060005260406000206000915090505481565b60075481565b600080600154036114e7576007549050611539565b600154670de0b6b3a76400006005546114fe610cdb565b611508919061183c565b6006546115159190611870565b61151f9190611870565b61152991906118e1565b6007546115369190611912565b90505b90565b7f000000000000000000000000000000000000000000000000000000000000000081565b6115f88282604051602401611576929190611fdb565b6040516020818303038152906040527fb60e72cc000000000000000000000000000000000000000000000000000000007bffffffffffffffffffffffffffffffffffffffffffffffffffffffff19166020820180517bffffffffffffffffffffffffffffffffffffffffffffffffffffffff83818316178352505050506115fc565b5050565b6116138161160b611616611637565b63ffffffff16565b50565b60006a636f6e736f6c652e6c6f679050600080835160208501845afa505050565b611642819050919050565b61164a61200b565b565b600080fd5b600073ffffffffffffffffffffffffffffffffffffffff82169050919050565b600061167c82611651565b9050919050565b61168c81611671565b811461169757600080fd5b50565b6000813590506116a981611683565b92915050565b6000602082840312156116c5576116c461164c565b5b60006116d38482850161169a565b91505092915050565b6000819050919050565b6116ef816116dc565b82525050565b600060208201905061170a60008301846116e6565b92915050565b611719816116dc565b811461172457600080fd5b50565b60008135905061173681611710565b92915050565b6000602082840312156117525761175161164c565b5b600061176084828501611727565b91505092915050565b6000819050919050565b600061178e61178961178484611651565b611769565b611651565b9050919050565b60006117a082611773565b9050919050565b60006117b282611795565b9050919050565b6117c2816117a7565b82525050565b60006020820190506117dd60008301846117b9565b92915050565b6117ec81611671565b82525050565b600060208201905061180760008301846117e3565b92915050565b7f4e487b7100000000000000000000000000000000000000000000000000000000600052601160045260246000fd5b6000611847826116dc565b9150611852836116dc565b925082820390508181111561186a5761186961180d565b5b92915050565b600061187b826116dc565b9150611886836116dc565b9250828202611894816116dc565b915082820484148315176118ab576118aa61180d565b5b5092915050565b7f4e487b7100000000000000000000000000000000000000000000000000000000600052601260045260246000fd5b60006118ec826116dc565b91506118f7836116dc565b925082611907576119066118b2565b5b828204905092915050565b600061191d826116dc565b9150611928836116dc565b92508282019050808211156119405761193f61180d565b5b92915050565b600082825260208201905092915050565b7f6e6f74206f776e65720000000000000000000000000000000000000000000000600082015250565b600061198d600983611946565b915061199882611957565b602082019050919050565b600060208201905081810360008301526119bc81611980565b9050919050565b7f6475726174696f6e2073686f756c642062652067726561746572207468616e2060008201527f7a65726f00000000000000000000000000000000000000000000000000000000602082015250565b6000611a1f602483611946565b9150611a2a826119c3565b604082019050919050565b60006020820190508181036000830152611a4e81611a12565b9050919050565b7f726577617264416d6f756e742073686f756c642062652067726561746572207460008201527f68616e207a65726f000000000000000000000000000000000000000000000000602082015250565b6000611ab1602883611946565b9150611abc82611a55565b604082019050919050565b60006020820190508181036000830152611ae081611aa4565b9050919050565b7f726577617264526174652063616e206e6f742062652030000000000000000000600082015250565b6000611b1d601783611946565b9150611b2882611ae7565b602082019050919050565b60006020820190508181036000830152611b4c81611b10565b9050919050565b600081519050611b6281611710565b92915050565b600060208284031215611b7e57611b7d61164c565b5b6000611b8c84828501611b53565b91505092915050565b7f7265776172647320616d6f756e74203e2062616c616e63650000000000000000600082015250565b6000611bcb601883611946565b9150611bd682611b95565b602082019050919050565b60006020820190508181036000830152611bfa81611bbe565b9050919050565b7f616d6f756e742063616e206e6f74206265203000000000000000000000000000600082015250565b6000611c37601383611946565b9150611c4282611c01565b602082019050919050565b60006020820190508181036000830152611c6681611c2a565b9050919050565b6000604082019050611c8260008301856117e3565b611c8f60208301846116e6565b9392505050565b60008115159050919050565b611cab81611c96565b8114611cb657600080fd5b50565b600081519050611cc881611ca2565b92915050565b600060208284031215611ce457611ce361164c565b5b6000611cf284828501611cb9565b91505092915050565b7f7472616e73666572206661696c65640000000000000000000000000000000000600082015250565b6000611d31600f83611946565b9150611d3c82611cfb565b602082019050919050565b60006020820190508181036000830152611d6081611d24565b9050919050565b7f416d6f756e74206d7573742062652067726561746572207468616e207a65726f600082015250565b6000611d9d602083611946565b9150611da882611d67565b602082019050919050565b60006020820190508181036000830152611dcc81611d90565b9050919050565b6000606082019050611de860008301866117e3565b611df560208301856117e3565b611e0260408301846116e6565b949350505050565b7f5472616e73666572206661696c65640000000000000000000000000000000000600082015250565b6000611e40600f83611946565b9150611e4b82611e0a565b602082019050919050565b60006020820190508181036000830152611e6f81611e33565b9050919050565b7f6e6f2072657761726420746f2077697468647261770000000000000000000000600082015250565b6000611eac601583611946565b9150611eb782611e76565b602082019050919050565b6000604082019050611ed760008301846117e3565b8181036020830152611ee881611e9f565b905092915050565b7f726577617264206475726174696f6e206e6f742066696e697368656400000000600082015250565b6000611f26601c83611946565b9150611f3182611ef0565b602082019050919050565b60006020820190508181036000830152611f5581611f19565b9050919050565b600081519050919050565b60005b83811015611f85578082015181840152602081019050611f6a565b60008484015250505050565b6000601f19601f8301169050919050565b6000611fad82611f5c565b611fb78185611946565b9350611fc7818560208601611f67565b611fd081611f91565b840191505092915050565b60006040820190508181036000830152611ff58185611fa2565b905061200460208301846116e6565b9392505050565b7f4e487b7100000000000000000000000000000000000000000000000000000000600052605160045260246000fdfea2646970667358221220fea6f2a6fad00cbb8c5b4a657bd6af3a831afd8f247a9cc20ad19f8d03b3809664736f6c634300081b0033",
  "linkReferences": {},
  "deployedLinkReferences": {}
}